{
  "contractName": "CertificateRegistry",
  "abi": [
    {
      "anonymous": false,
      "inputs": [
        {
          "indexed": false,
          "internalType": "address",
          "name": "institutionAddress",
          "type": "address"
        },
        {
          "indexed": false,
          "internalType": "string",
          "name": "studentName",
          "type": "string"
        },
        {
          "indexed": false,
          "internalType": "string",
          "name": "ipfsHash",
          "type": "string"
        }
      ],
      "name": "CertificateIssued",
      "type": "event"
    },
    {
      "anonymous": false,
      "inputs": [
        {
          "indexed": false,
          "internalType": "address",
          "name": "institutionAddress",
          "type": "address"
        },
        {
          "indexed": false,
          "internalType": "string",
          "name": "name",
          "type": "string"
        }
      ],
      "name": "InstitutionRegistered",
      "type": "event"
    },
    {
      "anonymous": false,
      "inputs": [
        {
          "indexed": false,
          "internalType": "address",
          "name": "studentAddress",
          "type": "address"
        },
        {
          "indexed": false,
          "internalType": "string",
          "name": "name",
          "type": "string"
        }
      ],
      "name": "StudentRegistered",
      "type": "event"
    },
    {
      "inputs": [
        {
          "internalType": "address",
          "name": "",
          "type": "address"
        },
        {
          "internalType": "uint256",
          "name": "",
          "type": "uint256"
        }
      ],
      "name": "certificates",
      "outputs": [
        {
          "internalType": "string",
          "name": "studentName",
          "type": "string"
        },
        {
          "internalType": "string",
          "name": "courseName",
          "type": "string"
        },
        {
          "internalType": "string",
          "name": "ipfsHash",
          "type": "string"
        }
      ],
      "stateMutability": "view",
      "type": "function"
    },
    {
      "inputs": [
        {
          "internalType": "address",
          "name": "",
          "type": "address"
        }
      ],
      "name": "institutions",
      "outputs": [
        {
          "internalType": "string",
          "name": "name",
          "type": "string"
        },
        {
          "internalType": "string",
          "name": "location",
          "type": "string"
        },
        {
          "internalType": "address",
          "name": "institutionAddress",
          "type": "address"
        },
        {
          "internalType": "bool",
          "name": "exists",
          "type": "bool"
        }
      ],
      "stateMutability": "view",
      "type": "function"
    },
    {
      "inputs": [
        {
          "internalType": "address",
          "name": "",
          "type": "address"
        }
      ],
      "name": "students",
      "outputs": [
        {
          "internalType": "string",
          "name": "name",
          "type": "string"
        },
        {
          "internalType": "address",
          "name": "studentAddress",
          "type": "address"
        },
        {
          "internalType": "address",
          "name": "institutionAddress",
          "type": "address"
        },
        {
          "internalType": "bool",
          "name": "exists",
          "type": "bool"
        }
      ],
      "stateMutability": "view",
      "type": "function"
    },
    {
      "inputs": [
        {
          "internalType": "string",
          "name": "_name",
          "type": "string"
        },
        {
          "internalType": "string",
          "name": "_location",
          "type": "string"
        }
      ],
      "name": "registerInstitution",
      "outputs": [],
      "stateMutability": "nonpayable",
      "type": "function"
    },
    {
      "inputs": [
        {
          "internalType": "string",
          "name": "_name",
          "type": "string"
        },
        {
          "internalType": "address",
          "name": "_institutionAddress",
          "type": "address"
        }
      ],
      "name": "registerStudent",
      "outputs": [],
      "stateMutability": "nonpayable",
      "type": "function"
    },
    {
      "inputs": [
        {
          "internalType": "address",
          "name": "_studentAddress",
          "type": "address"
        },
        {
          "internalType": "string",
          "name": "_courseName",
          "type": "string"
        },
        {
          "internalType": "string",
          "name": "_ipfsHash",
          "type": "string"
        }
      ],
      "name": "issueCertificate",
      "outputs": [],
      "stateMutability": "nonpayable",
      "type": "function"
    },
    {
      "inputs": [
        {
          "internalType": "address",
          "name": "_studentAddress",
          "type": "address"
        }
      ],
      "name": "getCertificates",
      "outputs": [
        {
          "components": [
            {
              "internalType": "string",
              "name": "studentName",
              "type": "string"
            },
            {
              "internalType": "string",
              "name": "courseName",
              "type": "string"
            },
            {
              "internalType": "string",
              "name": "ipfsHash",
              "type": "string"
            }
          ],
          "internalType": "struct CertificateRegistry.Certificate[]",
          "name": "",
          "type": "tuple[]"
        }
      ],
      "stateMutability": "view",
      "type": "function"
    }
  ],
  "bytecode": "0x608060405234801561000f575f80fd5b50611dc68061001d5f395ff3fe608060405234801561000f575f80fd5b506004361061007b575f3560e01c8063b2d9767f11610059578063b2d9767f14610100578063c6b5c5cc14610133578063e98ac4d81461014f578063f1c49c621461016b5761007b565b806346f3141c1461007f578063528bcbac146100b1578063a6c807a9146100cd575b5f80fd5b61009960048036038101906100949190611116565b61019b565b6040516100a8939291906111de565b60405180910390f35b6100cb60048036038101906100c69190611354565b61036d565b005b6100e760048036038101906100e291906113ae565b610614565b6040516100f79493929190611402565b60405180910390f35b61011a600480360381019061011591906113ae565b610711565b60405161012a949392919061144c565b60405180910390f35b61014d6004803603810190610148919061149d565b610874565b005b61016960048036038101906101649190611513565b610a47565b005b610185600480360381019061018091906113ae565b610e30565b60405161019291906116f9565b60405180910390f35b6002602052815f5260405f2081815481106101b4575f80fd5b905f5260205f2090600302015f9150915050805f0180546101d490611746565b80601f016020809104026020016040519081016040528092919081815260200182805461020090611746565b801561024b5780601f106102225761010080835404028352916020019161024b565b820191905f5260205f20905b81548152906001019060200180831161022e57829003601f168201915b50505050509080600101805461026090611746565b80601f016020809104026020016040519081016040528092919081815260200182805461028c90611746565b80156102d75780601f106102ae576101008083540402835291602001916102d7565b820191905f5260205f20905b8154815290600101906020018083116102ba57829003601f168201915b5050505050908060020180546102ec90611746565b80601f016020809104026020016040519081016040528092919081815260200182805461031890611746565b80156103635780601f1061033a57610100808354040283529160200191610363565b820191905f5260205f20905b81548152906001019060200180831161034657829003601f168201915b5050505050905083565b60015f3373ffffffffffffffffffffffffffffffffffffffff1673ffffffffffffffffffffffffffffffffffffffff1681526020019081526020015f2060020160149054906101000a900460ff16156103fb576040517f08c379a00000000000000000000000000000000000000000000000000000000081526004016103f2906117c0565b60405180910390fd5b5f808273ffffffffffffffffffffffffffffffffffffffff1673ffffffffffffffffffffffffffffffffffffffff1681526020019081526020015f2060020160149054906101000a900460ff16610487576040517f08c379a000000000000000000000000000000000000000000000000000000000815260040161047e90611828565b60405180910390fd5b60405180608001604052808381526020013373ffffffffffffffffffffffffffffffffffffffff1681526020018273ffffffffffffffffffffffffffffffffffffffff1681526020016001151581525060015f3373ffffffffffffffffffffffffffffffffffffffff1673ffffffffffffffffffffffffffffffffffffffff1681526020019081526020015f205f820151815f01908161052791906119e3565b506020820151816001015f6101000a81548173ffffffffffffffffffffffffffffffffffffffff021916908373ffffffffffffffffffffffffffffffffffffffff1602179055506040820151816002015f6101000a81548173ffffffffffffffffffffffffffffffffffffffff021916908373ffffffffffffffffffffffffffffffffffffffff16021790555060608201518160020160146101000a81548160ff0219169083151502179055509050507fc1b20826100814ba286ac576fe980df1dbbcef3d904bb81f3d69a0e8280dc1143383604051610608929190611ab2565b60405180910390a15050565b6001602052805f5260405f205f91509050805f01805461063390611746565b80601f016020809104026020016040519081016040528092919081815260200182805461065f90611746565b80156106aa5780601f10610681576101008083540402835291602001916106aa565b820191905f5260205f20905b81548152906001019060200180831161068d57829003601f168201915b505050505090806001015f9054906101000a900473ffffffffffffffffffffffffffffffffffffffff1690806002015f9054906101000a900473ffffffffffffffffffffffffffffffffffffffff16908060020160149054906101000a900460ff16905084565b5f602052805f5260405f205f91509050805f01805461072f90611746565b80601f016020809104026020016040519081016040528092919081815260200182805461075b90611746565b80156107a65780601f1061077d576101008083540402835291602001916107a6565b820191905f5260205f20905b81548152906001019060200180831161078957829003601f168201915b5050505050908060010180546107bb90611746565b80601f01602080910402602001604051908101604052809291908181526020018280546107e790611746565b80156108325780601f1061080957610100808354040283529160200191610832565b820191905f5260205f20905b81548152906001019060200180831161081557829003601f168201915b505050505090806002015f9054906101000a900473ffffffffffffffffffffffffffffffffffffffff16908060020160149054906101000a900460ff16905084565b5f803373ffffffffffffffffffffffffffffffffffffffff1673ffffffffffffffffffffffffffffffffffffffff1681526020019081526020015f2060020160149054906101000a900460ff1615610901576040517f08c379a00000000000000000000000000000000000000000000000000000000081526004016108f890611b2a565b60405180910390fd5b60405180608001604052808381526020018281526020013373ffffffffffffffffffffffffffffffffffffffff168152602001600115158152505f803373ffffffffffffffffffffffffffffffffffffffff1673ffffffffffffffffffffffffffffffffffffffff1681526020019081526020015f205f820151815f01908161098a91906119e3565b5060208201518160010190816109a091906119e3565b506040820151816002015f6101000a81548173ffffffffffffffffffffffffffffffffffffffff021916908373ffffffffffffffffffffffffffffffffffffffff16021790555060608201518160020160146101000a81548160ff0219169083151502179055509050507f73a52c071d4a02996481449bf1ad04d8f24559a7ec51210c4ec5e43d3baee8813383604051610a3b929190611ab2565b60405180910390a15050565b5f803373ffffffffffffffffffffffffffffffffffffffff1673ffffffffffffffffffffffffffffffffffffffff1681526020019081526020015f2060020160149054906101000a900460ff16610ad3576040517f08c379a0000000000000000000000000000000000000000000000000000000008152600401610aca90611bb8565b60405180910390fd5b60015f8473ffffffffffffffffffffffffffffffffffffffff1673ffffffffffffffffffffffffffffffffffffffff1681526020019081526020015f2060020160149054906101000a900460ff16610b60576040517f08c379a0000000000000000000000000000000000000000000000000000000008152600401610b5790611c20565b60405180910390fd5b3373ffffffffffffffffffffffffffffffffffffffff1660015f8573ffffffffffffffffffffffffffffffffffffffff1673ffffffffffffffffffffffffffffffffffffffff1681526020019081526020015f206002015f9054906101000a900473ffffffffffffffffffffffffffffffffffffffff1673ffffffffffffffffffffffffffffffffffffffff1614610c2d576040517f08c379a0000000000000000000000000000000000000000000000000000000008152600401610c2490611cae565b60405180910390fd5b60025f8473ffffffffffffffffffffffffffffffffffffffff1673ffffffffffffffffffffffffffffffffffffffff1681526020019081526020015f20604051806060016040528060015f8773ffffffffffffffffffffffffffffffffffffffff1673ffffffffffffffffffffffffffffffffffffffff1681526020019081526020015f205f018054610cbf90611746565b80601f0160208091040260200160405190810160405280929190818152602001828054610ceb90611746565b8015610d365780601f10610d0d57610100808354040283529160200191610d36565b820191905f5260205f20905b815481529060010190602001808311610d1957829003601f168201915b5050505050815260200184815260200183815250908060018154018082558091505060019003905f5260205f2090600302015f909190919091505f820151815f019081610d8391906119e3565b506020820151816001019081610d9991906119e3565b506040820151816002019081610daf91906119e3565b5050507f47cc4ced4606cf64a6565f021a305c4cb93bfd53abc74f8321ff3552f6ab754a3360015f8673ffffffffffffffffffffffffffffffffffffffff1673ffffffffffffffffffffffffffffffffffffffff1681526020019081526020015f205f0183604051610e2393929190611d4d565b60405180910390a1505050565b606060025f8373ffffffffffffffffffffffffffffffffffffffff1673ffffffffffffffffffffffffffffffffffffffff1681526020019081526020015f20805480602002602001604051908101604052809291908181526020015f905b8282101561106d578382905f5260205f2090600302016040518060600160405290815f82018054610ebe90611746565b80601f0160208091040260200160405190810160405280929190818152602001828054610eea90611746565b8015610f355780601f10610f0c57610100808354040283529160200191610f35565b820191905f5260205f20905b815481529060010190602001808311610f1857829003601f168201915b50505050508152602001600182018054610f4e90611746565b80601f0160208091040260200160405190810160405280929190818152602001828054610f7a90611746565b8015610fc55780601f10610f9c57610100808354040283529160200191610fc5565b820191905f5260205f20905b815481529060010190602001808311610fa857829003601f168201915b50505050508152602001600282018054610fde90611746565b80601f016020809104026020016040519081016040528092919081815260200182805461100a90611746565b80156110555780601f1061102c57610100808354040283529160200191611055565b820191905f5260205f20905b81548152906001019060200180831161103857829003601f168201915b50505050508152505081526020019060010190610e8e565b505050509050919050565b5f604051905090565b5f80fd5b5f80fd5b5f73ffffffffffffffffffffffffffffffffffffffff82169050919050565b5f6110b282611089565b9050919050565b6110c2816110a8565b81146110cc575f80fd5b50565b5f813590506110dd816110b9565b92915050565b5f819050919050565b6110f5816110e3565b81146110ff575f80fd5b50565b5f81359050611110816110ec565b92915050565b5f806040838503121561112c5761112b611081565b5b5f611139858286016110cf565b925050602061114a85828601611102565b9150509250929050565b5f81519050919050565b5f82825260208201905092915050565b5f5b8381101561118b578082015181840152602081019050611170565b5f8484015250505050565b5f601f19601f8301169050919050565b5f6111b082611154565b6111ba818561115e565b93506111ca81856020860161116e565b6111d381611196565b840191505092915050565b5f6060820190508181035f8301526111f681866111a6565b9050818103602083015261120a81856111a6565b9050818103604083015261121e81846111a6565b9050949350505050565b5f80fd5b5f80fd5b7f4e487b71000000000000000000000000000000000000000000000000000000005f52604160045260245ffd5b61126682611196565b810181811067ffffffffffffffff8211171561128557611284611230565b5b80604052505050565b5f611297611078565b90506112a3828261125d565b919050565b5f67ffffffffffffffff8211156112c2576112c1611230565b5b6112cb82611196565b9050602081019050919050565b828183375f83830152505050565b5f6112f86112f3846112a8565b61128e565b9050828152602081018484840111156113145761131361122c565b5b61131f8482856112d8565b509392505050565b5f82601f83011261133b5761133a611228565b5b813561134b8482602086016112e6565b91505092915050565b5f806040838503121561136a57611369611081565b5b5f83013567ffffffffffffffff81111561138757611386611085565b5b61139385828601611327565b92505060206113a4858286016110cf565b9150509250929050565b5f602082840312156113c3576113c2611081565b5b5f6113d0848285016110cf565b91505092915050565b6113e2816110a8565b82525050565b5f8115159050919050565b6113fc816113e8565b82525050565b5f6080820190508181035f83015261141a81876111a6565b905061142960208301866113d9565b61143660408301856113d9565b61144360608301846113f3565b95945050505050565b5f6080820190508181035f83015261146481876111a6565b9050818103602083015261147881866111a6565b905061148760408301856113d9565b61149460608301846113f3565b95945050505050565b5f80604083850312156114b3576114b2611081565b5b5f83013567ffffffffffffffff8111156114d0576114cf611085565b5b6114dc85828601611327565b925050602083013567ffffffffffffffff8111156114fd576114fc611085565b5b61150985828601611327565b9150509250929050565b5f805f6060848603121561152a57611529611081565b5b5f611537868287016110cf565b935050602084013567ffffffffffffffff81111561155857611557611085565b5b61156486828701611327565b925050604084013567ffffffffffffffff81111561158557611584611085565b5b61159186828701611327565b9150509250925092565b5f81519050919050565b5f82825260208201905092915050565b5f819050602082019050919050565b5f82825260208201905092915050565b5f6115de82611154565b6115e881856115c4565b93506115f881856020860161116e565b61160181611196565b840191505092915050565b5f606083015f8301518482035f86015261162682826115d4565b9150506020830151848203602086015261164082826115d4565b9150506040830151848203604086015261165a82826115d4565b9150508091505092915050565b5f611672838361160c565b905092915050565b5f602082019050919050565b5f6116908261159b565b61169a81856115a5565b9350836020820285016116ac856115b5565b805f5b858110156116e757848403895281516116c88582611667565b94506116d38361167a565b925060208a019950506001810190506116af565b50829750879550505050505092915050565b5f6020820190508181035f8301526117118184611686565b905092915050565b7f4e487b71000000000000000000000000000000000000000000000000000000005f52602260045260245ffd5b5f600282049050600182168061175d57607f821691505b6020821081036117705761176f611719565b5b50919050565b7f53747564656e7420616c726561647920726567697374657265642e00000000005f82015250565b5f6117aa601b8361115e565b91506117b582611776565b602082019050919050565b5f6020820190508181035f8301526117d78161179e565b9050919050565b7f496e737469747574696f6e20646f6573206e6f742065786973742e00000000005f82015250565b5f611812601b8361115e565b915061181d826117de565b602082019050919050565b5f6020820190508181035f83015261183f81611806565b9050919050565b5f819050815f5260205f209050919050565b5f6020601f8301049050919050565b5f82821b905092915050565b5f600883026118a27fffffffffffffffffffffffffffffffffffffffffffffffffffffffffffffffff82611867565b6118ac8683611867565b95508019841693508086168417925050509392505050565b5f819050919050565b5f6118e76118e26118dd846110e3565b6118c4565b6110e3565b9050919050565b5f819050919050565b611900836118cd565b61191461190c826118ee565b848454611873565b825550505050565b5f90565b61192861191c565b6119338184846118f7565b505050565b5b818110156119565761194b5f82611920565b600181019050611939565b5050565b601f82111561199b5761196c81611846565b61197584611858565b81016020851015611984578190505b61199861199085611858565b830182611938565b50505b505050565b5f82821c905092915050565b5f6119bb5f19846008026119a0565b1980831691505092915050565b5f6119d383836119ac565b9150826002028217905092915050565b6119ec82611154565b67ffffffffffffffff811115611a0557611a04611230565b5b611a0f8254611746565b611a1a82828561195a565b5f60209050601f831160018114611a4b575f8415611a39578287015190505b611a4385826119c8565b865550611aaa565b601f198416611a5986611846565b5f5b82811015611a8057848901518255600182019150602085019450602081019050611a5b565b86831015611a9d5784890151611a99601f8916826119ac565b8355505b6001600288020188555050505b505050505050565b5f604082019050611ac55f8301856113d9565b8181036020830152611ad781846111a6565b90509392505050565b7f496e737469747574696f6e20616c726561647920726567697374657265642e005f82015250565b5f611b14601f8361115e565b9150611b1f82611ae0565b602082019050919050565b5f6020820190508181035f830152611b4181611b08565b9050919050565b7f4f6e6c79207265676973746572656420696e737469747574696f6e732063616e5f8201527f206973737565206365727469666963617465732e000000000000000000000000602082015250565b5f611ba260348361115e565b9150611bad82611b48565b604082019050919050565b5f6020820190508181035f830152611bcf81611b96565b9050919050565b7f53747564656e74206e6f7420726567697374657265642e0000000000000000005f82015250565b5f611c0a60178361115e565b9150611c1582611bd6565b602082019050919050565b5f6020820190508181035f830152611c3781611bfe565b9050919050565b7f53747564656e74206e6f74207265676973746572656420756e646572207468695f8201527f7320696e737469747574696f6e2e000000000000000000000000000000000000602082015250565b5f611c98602e8361115e565b9150611ca382611c3e565b604082019050919050565b5f6020820190508181035f830152611cc581611c8c565b9050919050565b5f8154611cd881611746565b611ce2818661115e565b9450600182165f8114611cfc5760018114611d1257611d44565b60ff198316865281151560200286019350611d44565b611d1b85611846565b5f5b83811015611d3c57815481890152600182019150602081019050611d1d565b808801955050505b50505092915050565b5f606082019050611d605f8301866113d9565b8181036020830152611d728185611ccc565b90508181036040830152611d8681846111a6565b905094935050505056fea264697066735822122042d790b4ea8a448eab64ee380d3f93bdb9a25dea322344618041aefa5e52495464736f6c63430008150033",
  "immutableReferences": {},
  "source": "// SPDX-License-Identifier: MIT\npragma solidity ^0.8.0;\n\ncontract CertificateRegistry {\n    struct Institution {\n        string name;\n        string location;\n        address institutionAddress;\n        bool exists;\n    }\n\n    struct Student {\n        string name;\n        address studentAddress;\n        address institutionAddress;\n        bool exists;\n    }\n\n    struct Certificate {\n        string studentName;\n        string courseName;\n        string ipfsHash;\n    }\n\n    mapping(address => Institution) public institutions;\n    mapping(address => Student) public students;\n    mapping(address => Certificate[]) public certificates;\n\n    event InstitutionRegistered(address institutionAddress, string name);\n    event StudentRegistered(address studentAddress, string name);\n    event CertificateIssued(address institutionAddress, string studentName, string ipfsHash);\n\n    function registerInstitution(string memory _name, string memory _location) public {\n        require(!institutions[msg.sender].exists, \"Institution already registered.\");\n        institutions[msg.sender] = Institution(_name, _location, msg.sender, true);\n        emit InstitutionRegistered(msg.sender, _name);\n    }\n\n    function registerStudent(string memory _name, address _institutionAddress) public {\n        require(!students[msg.sender].exists, \"Student already registered.\");\n        require(institutions[_institutionAddress].exists, \"Institution does not exist.\");\n        students[msg.sender] = Student(_name, msg.sender, _institutionAddress, true);\n        emit StudentRegistered(msg.sender, _name);\n    }\n\n    function issueCertificate(address _studentAddress, string memory _courseName, string memory _ipfsHash) public {\n        require(institutions[msg.sender].exists, \"Only registered institutions can issue certificates.\");\n        require(students[_studentAddress].exists, \"Student not registered.\");\n        require(students[_studentAddress].institutionAddress == msg.sender, \"Student not registered under this institution.\");\n\n        certificates[_studentAddress].push(Certificate(students[_studentAddress].name, _courseName, _ipfsHash));\n        emit CertificateIssued(msg.sender, students[_studentAddress].name, _ipfsHash);\n    }\n\n    function getCertificates(address _studentAddress) public view returns (Certificate[] memory) {\n        return certificates[_studentAddress];\n    }\n}\n",
  "sourcePath": "/Users/christythomas/Desktop/decentralized-certificates/contracts/Certificate.sol",
  "compiler": {
    "name": "solc",
    "version": "0.8.21+commit.d9974bed.Emscripten.clang"
  },
  "schemaVersion": "3.4.16",
  "updatedAt": "2024-08-22T15:29:34.317Z",
  "devdoc": {
    "kind": "dev",
    "methods": {},
    "version": 1
  },
  "userdoc": {
    "kind": "user",
    "methods": {},
    "version": 1
  }
}